:020000040800F2
:1000000000000820B1250008590800085B08000816
:100010005D0800085F080008610800080000000093
:10002000000000000000000000000000630800085D
:10003000650800080000000067080008690800085B
:1000400001260008012600080126000801260008F4
:1000500001260008012600080126000801260008E4
:1000600001260008012600080126000801260008D4
:1000700001260008012600080126000801260008C4
:1000800001260008012600080126000801260008B4
:1000900001260008012600080126000801260008A4
:1000A0000126000801260008012600080126000894
:1000B0000126000801260008012600080126000884
:1000C0000126000801260008012600080126000874
:1000D0000126000801260008012600080126000864
:1000E0000126000801260008012600080126000854
:1000F0000126000801260008012600080126000844
:100100000126000801260008012600080126000833
:100110000126000801260008012600080126000823
:100120000126000801260008012600080126000813
:100130000126000801260008012600080126000803
:1001400001260008012600080126000801260008F3
:1001500001260008012600080126000801260008E3
:1001600001260008012600080126000801260008D3
:1001700001260008012600080126000800000000F2
:1001800001260008012600080126000801260008B3
:1001900001260008012600080126000801260008A3
:1001A0000126000801260008012600080126000893
:1001B0000126000801260008012600080126000883
:1001C00001260008012600080000000001260008A2
:1001D0000126000801260008012600080126000863
:1001E0000126000801260008012600080126000853
:0801F0000126000801260008A9
:1001F80010B5054C237833B9044B13B10448AFF359
:1002080000800123237010BD0C00002000000000B6
:100218005C26000808B5034B1BB103490348AFF33C
:10022800008008BD00000000100000205C260008C7
:1002380053B94AB9002908BF00281CBF4FF0FF3145
:100248004FF0FF3000F074B9ADF1080C6DE904CE41
:1002580000F006F8DDF804E0DDE9022304B0704799
:100268002DE9F047089D04468E46002B4DD18A4261
:10027800944669D9B2FA82F252B101FA02F3C2F194
:10028800200120FA01F10CFA02FC41EA030E944025
:100298004FEA1C48210CBEFBF8F61FFA8CF708FB46
:1002A80016E341EA034306FB07F199420AD91CEB1E
:1002B800030306F1FF3080F01F81994240F21C8150
:1002C800023E63445B1AA4B2B3FBF8F008FB103398
:1002D80044EA034400FB07F7A7420AD91CEB0404CD
:1002E80000F1FF3380F00A81A74240F2078164449D
:1002F800023840EA0640E41B00261DB1D440002322
:10030800C5E900433146BDE8F0878B4209D9002D85
:1003180000F0EF800026C5E9000130463146BDE80F
:10032800F087B3FA83F6002E4AD18B4202D3824279
:1003380000F2F980841A61EB030301209E46002D28
:10034800E0D0C5E9004EDDE702B9FFDEB2FA82F27D
:10035800002A40F09280A1EB0C014FEA1C471FFADB
:100368008CFE0126200CB1FBF7F307FB131140EAC2
:1003780001410EFB03F0884208D91CEB010103F18F
:10038800FF3802D2884200F2CB804346091AA4B251
:10039800B1FBF7F007FB101144EA01440EFB00FE25
:1003A800A64508D91CEB040400F1FF3102D2A6458A
:1003B80000F2BB800846A4EB0E0440EA03409CE729
:1003C800C6F12007B34022FA07FC4CEA030C20FAD6
:1003D80007F401FA06F31C43F9404FEA1C4900FAF6
:1003E80006F3B1FBF9F8200C1FFA8CFE09FB181173
:1003F80040EA014108FB0EF0884202FA06F20BD9E6
:100408001CEB010108F1FF3A80F08880884240F235
:100418008580A8F102086144091AA4B2B1FBF9F079
:1004280009FB101144EA014100FB0EFE8E4508D974
:100438001CEB010100F1FF346CD28E456AD90238F9
:10044800614440EA0840A0FB0294A1EB0E01A142DE
:10045800C846A64656D353D05DB1B3EB080261EB4C
:100468000E0101FA07F722FA06F3F1401F43C5E926
:10047800007100263146BDE8F087C2F12003D8405C
:100488000CFA02FC21FA03F3914001434FEA1C479E
:100498001FFA8CFEB3FBF7F007FB10360B0C43EA90
:1004A800064300FB0EF69E4204FA02F408D91CEB40
:1004B800030300F1FF382FD29E422DD9023863443E
:1004C8009B1B89B2B3FBF7F607FB163341EA0341DE
:1004D80006FB0EF38B4208D91CEB010106F1FF382D
:1004E80016D28B4214D9023E6144C91A46EA004624
:1004F80038E72E46284605E70646E3E61846F8E6B6
:100508004B45A9D2B9EB020864EB0C0E0138A3E7FE
:100518004646EAE7204694E74046D1E7D0467BE7DF
:10052800023B614432E7304609E76444023842E757
:10053800704700BF2DE9F04F8DB000240794089450
:1005480009940A940B94524B1A6B42F004021A63F2
:100558001A6B02F004020192019A1A6B42F08002AF
:100568001A631A6B02F080020292029A1A6B42F026
:1005780001021A631A6B02F001020392039A1A6BC2
:1005880042F002021A631A6B02F002020492049A01
:100598001A6B42F008021A631A6B02F008020592FD
:1005A800059A1A6B42F040021A631B6B03F0400372
:1005B8000693069BDFF8E890224644F281014846FC
:1005C80001F0FFFC334D22464021284601F0F9FC9A
:1005D8004FF4005BCDF81CB02F4B08930994DFF85B
:1005E800C4A007A9504601F0F3FB322307934FF04C
:1005F8000208CDF82080099403270A970B260B964A
:1006080007A9504601F0E4FB86230793CDF8208024
:1006180009940A970B9607A9204801F0D9FB44F2E0
:10062800810307934FF0010ACDF820A009940A949A
:1006380007A9484601F0CCFBCDF81CB0CDF82080C6
:1006480009940A970B9607A9484601F0C1FB402375
:100658000793CDF820A009940A9407A9284601F029
:10066800B7FB802307930894099407A9284601F04B
:10067800AFFB4FF420530793CDF8208009940A97D5
:100688000B9607A9284601F0A3FB0DB0BDE8F08F33
:10069800003802400018024000001110000002401B
:1006A800000402400008024072B6FEE708B50B4895
:1006B8000B4B03604FF4E133436000238360C36056
:1006C80003610C2242618361C3610362436200F0EB
:1006D800E4FC00B908BDFFF7E7FF00BF2C040020C9
:1006E8000048004008B50B484FF0A04303600623BC
:1006F80043600222C2600023036182610122C26159
:1007080003624362C262036301F008FD00B908BDD9
:10071800FFF7CAFF2800002000B5B9B03422002135
:100728002BA801F08FFF002126912791289129916C
:100738002A91902202A801F085FF01F051FC284B74
:100748001A6C42F080521A641B6C03F080530093B9
:10075800009B244A136823F4404343F48043136006
:10076800136803F440430193019B01232B934FF437
:10077800A0232C93022231924FF480033293042356
:10078800339360213491359236932BA800F0B6FC50
:10079800E8B901F02DFCE0B90F2326930223279333
:1007A800002328934FF4805229922A93032126A8E4
:1007B80000F030FF78B90C4B029300231593219376
:1007C80002A801F003F840B939B05DF804FBFFF75F
:1007D8006BFFFFF769FFFFF767FFFFF765FF00BFD4
:1007E80000380240007000400001200010B501F000
:1007F80063FCFFF791FFFFF79DFEFFF757FFFFF739
:1008080071FF0F4C0121204601F0E1FB80212046B9
:1008180001F0DDFB4FF48041204601F0D8FB322087
:1008280001F068FC4FF40051064801F0C3FB0028B2
:10083800E7D164230E220449044800F08FFBE0E767
:100848000004024000080240742600082C0400201E
:10085800FEE7FEE7FEE7FEE7FEE7704770477047F2
:1008680008B501F035FC08BD82B00A4B1A6C42F09D
:1008780080521A641A6C02F080520092009A5A6CE4
:1008880042F480425A645B6C03F480430193019BF9
:1008980002B070470038024000B589B000230393C6
:1008A80004930593069307930268144B9A4202D067
:1008B80009B05DF804FB03F5F8331A6C42F48022A2
:1008C8001A641A6C02F480220192019A1A6B42F09F
:1008D80008021A631B6B03F008030293029B4FF490
:1008E8004073039302230493032306930723079378
:1008F80003A9034801F06CFADAE700BF004800409A
:10090800000C024030B589B000230393049305938B
:10091800069307930368B3F1A04F01D009B030BD27
:100928001A4C236B43F001032363236B03F0010389
:100938000093009B4FF4E85303930223049303238B
:1009480006930A230793124D03A9284601F040FA9B
:100958004FF40073039300230493059303A92846D7
:1009680001F036FA636B43F080036363636B03F053
:1009780080030193019B636C43F480436364636C5D
:1009880003F480430293029BC8E700BF003802408B
:10099800000002400649CB6823F4E0631B041B0CEB
:1009A800000200F4E0600343024A1A43CA60704739
:1009B80000ED00E00000FA0500B5174BDB68C3F353
:1009C8000223C3F1070CBCF1040F28BF4FF0040C3D
:1009D80003F1040EBEF1060F14D9033B4FF0FF3E9E
:1009E8000EFA0CFC21EA0C0199400EFA03F322EAF4
:1009F80003031943002807DB0901C9B2074B19543F
:100A08005DF804FB0023E9E700F00F000901C9B213
:100A1800034B1954F4E700BF00ED00E000E400E0E8
:100A280014ED00E00138B0F1807F0BD24FF0E023E5
:100A38005861054AF02182F82310002098610722A6
:100A48001A6170470120704700ED00E038B5044690
:100A580083680269134342691343C26913430168F7
:100A68000868934A024013430B602268536823F4D2
:100A78004053E1680B435360A269236A1A43216813
:100A88008B6823F4306313438B602368894A93424D
:100A980019D0894A934229D0884A93423ED0884A3D
:100AA800934262D0874A934271D0874A934200F0BA
:100AB8008380864A934200F09480854A934200F0EE
:100AC800A58010253AE0834BD3F8903003F0030358
:100AD800032B09D8DFE803F00204AE0601252DE058
:100AE80004252BE0082529E0102527E0794BD3F8C9
:100AF800903003F00C030C2B0ED8DFE803F0070D41
:100B08000D0D090D0D0D9D0D0D0D0B00002515E0AA
:100B1800042513E0082511E010250FE06D4BD3F8EC
:100B2800903003F03003202B00F0888019D8002B78
:100B380000F08680102B40F085800425E369B3F52A
:100B4800004F00F0AB80082D00F23881DFE815F087
:100B5800070110011A013601230136013601360159
:100B68002D01302B70D10825E8E75A4BD3F8903087
:100B780003F0C003802B69D005D8002B68D0402B28
:100B880068D10425DAE7C02B66D10825D6E7514B92
:100B9800D3F8903003F44073B3F5007F5ED006D8E5
:100BA800002B5DD0B3F5807F5CD10425C6E7B3F593
:100BB800407F59D10825C1E7464BD3F8903003F45C
:100BC8004063B3F5006F51D006D8002B50D0B3F571
:100BD800806F4FD10425B1E7B3F5406F4CD108259C
:100BE800ACE73C4BD3F8903003F44053B3F5005FC7
:100BF80044D006D8002B43D0B3F5805F42D10425FA
:100C08009CE7B3F5405F3FD1082597E7314BD3F810
:100C1800903003F44043B3F5004F37D005D8BBB349
:100C2800B3F5804F36D1042588E7B3F5404F33D16B
:100C3800082583E7022581E702257FE702257DE76E
:100C480000257BE7102579E7102577E7022575E76A
:100C5800002573E7102571E710256FE702256DE77A
:100C680000256BE7102569E7102567E7022565E78A
:100C7800012563E7102561E710255FE702255DE799
:100C880000255BE7102559E7102557E7022555E7AA
:100C9800002553E7102551E710254FE7082D4DD8BB
:100CA800DFE805F01A242F4C384C4C4C430000BFA9
:100CB800F369FFEF00100140004400400048004085
:100CC800004C0040005000400014014000780040F3
:100CD800007C00400038024000F058FD626853086C
:100CE80003EB4003B3FBF2F39BB229E000F05EFD97
:100CF8006268530803EB4003B3FBF2F39BB2002591
:100D08001EE06268374B03EB5203B3FBF2F39BB26E
:100D1800002515E000F014FC6268530803EB40035B
:100D2800B3FBF2F39BB200250AE06268530803F5AF
:100D38008033B3FBF2F39BB2002501E001250023C9
:100D4800A3F110014FF6EF72914242D89AB222F005
:100D58000F02C3F3420313432268D3603CE000F060
:100D680015FD626800EB5203B3FBF2F39BB227E078
:100D780000F01CFD626800EB5203B3FBF2F39BB278
:100D880000251DE06268184B03EB5203B3FBF2F336
:100D98009BB2002514E000F0D3FB626800EB52031D
:100DA800B3FBF2F39BB200250AE06268530803F52F
:100DB8000043B3FBF2F39BB2002501E001250023B9
:100DC800A3F110014FF6EF72914204D82268D36064
:100DD80002E0012500E0012500232366636628461A
:100DE80038BD00BF0048E8010024F400436A13F04E
:100DF800010F06D00268536823F40033816A0B435D
:100E08005360436A13F0020F06D00268536823F454
:100E18008033C16A0B435360436A13F0040F06D052
:100E28000268536823F48023016B0B435360436AC1
:100E380013F0080F06D00268536823F40043416B8F
:100E48000B435360436A13F0100F06D0026893688F
:100E580023F48053816B0B439360436A13F0200F94
:100E680006D00268936823F40053C16B0B43936068
:100E7800436A13F0400F0AD00268536823F48013C2
:100E8800016C0B435360036CB3F5801F0BD0436AAE
:100E980013F0800F06D00268536823F40023816C96
:100EA8000B43536070470268536823F4C003416CD6
:100EB8000B435360EBE72DE9F84305460F4616460A
:100EC8009946DDF820802C68E46937EA04030CBFF2
:100ED8004FF0010C4FF0000CB4453CD1B8F1FF3F86
:100EE800F1D001F001F9A0EB0900404521D8B8F193
:100EF800000F1ED02B681A6812F0040FE3D0DA69CD
:100F080012F4006FDFD04FF400621A622A68136887
:100F180023F4D07313602A68936823F00103936065
:100F280020236B67AB67EB67002385F870300320DD
:100F380012E02A68136823F4D07313602A68936850
:100F480023F00103936020236B67AB67002385F8C8
:100F58007030032000E00020BDE8F8832DE9F0415F
:100F680082B01E46436F202B55D104460D4690464D
:100F7800002A18BF002952D090F87030012B50D0A9
:100F8800012380F870300023C3672123436701F0F1
:100F9800ABF80746A4F85080A4F85280A368B3F5CC
:100FA800805F05D04FF00008002384F8703012E00D
:100FB800236913B14FF00008F6E7A8460025F3E7C8
:100FC80015F8012B23689A62B4F8522092B2013ABC
:100FD80092B2A4F85220B4F852309BB283B1009672
:100FE8003B46002280212046FFF765FFD8B9002D37
:100FF800E6D138F8023B2268C3F308039362E3E7BB
:1010080000963B46002240212046FFF754FF60B976
:101018002023636700E0022002B0BDE8F0810120D0
:10102800FAE70220F8E70320F6E70320F4E730B5F3
:1010380083B004460023C36701F056F805462268CA
:10104800126812F0080F0CD123681B6813F0040F04
:1010580015D120236367A367002084F8700003B0CC
:1010680030BD6FF07E430093034600224FF4001119
:101078002046FFF720FF0028E6D00320EFE76FF0B7
:101088007E4300932B4600224FF480012046FFF751
:1010980012FF0028DDD00320E1E768B310B504464D
:1010A800436F03B3242363672268136823F00103A3
:1010B80013602046FFF7CAFC012813D0636ABBB946
:1010C8002268536823F4904353602268936823F09E
:1010D8002A0393602268136843F0010313602046D3
:1010E800FFF7A5FF10BD80F87030FFF7D5FBD9E7F3
:1010F8002046FFF77BFEE3E701207047002800F059
:10110800068270B582B00446036813F0010F29D037
:10111800954B9B6803F00C03042B1AD0924B9B68E9
:1011280003F00C03082B0FD06368B3F5803F40D061
:10113800002B54D18C4B1A6822F480321A601A683A
:1011480022F480221A6039E0874B5B6813F4800F21
:10115800EAD0854B1B6813F4003F03D06368002B6B
:1011680000F0D781236813F0020F74D07E4B9B6880
:1011780013F00C0F5ED07C4B9B6803F00C03082B1C
:1011880053D0E368002B00F08980774A136843F056
:101198000103136000F0A8FF0546734B1B6813F0AA
:1011A800020F72D100F0A0FF401B0228F5D90320DE
:1011B800B4E16D4A136843F48033136063682BB35A
:1011C80000F092FF0546684B1B6813F4003FC9D135
:1011D80000F08AFF401B6428F5D903209EE1B3F58F
:1011E800A02F09D0604B1A6822F480321A601A685E
:1011F80022F480221A60E1E75B4B1A6842F48022ED
:101208001A601A6842F480321A60D7E700F06CFF5F
:101218000546554B1B6813F4003FA3D000F064FF4C
:10122800401B6428F5D9032078E14F4B5B6813F421
:10123800800FA6D14C4B1B6813F0020F03D0E36854
:10124800012B40F06881484A136823F0F8032169AC
:1012580043EAC1031360236813F0080F46D063699B
:1012680083B3414A536F43F00103536700F03CFFD7
:1012780005463D4B5B6F13F0020F37D100F034FF8A
:10128800401B0228F5D9032048E1374A136823F0A8
:10129800F803216943EAC1031360DCE7324A1368A3
:1012A80023F00103136000F01FFF05462E4B1B6857
:1012B80013F0020FCFD000F017FF401B0228F5D91A
:1012C80003202BE1284A536F23F00103536700F0F2
:1012D8000BFF0546244B5B6F13F0020F06D000F09E
:1012E80003FF401B0228F5D9032017E1236813F0F8
:1012F800040F7DD01C4B1B6C13F0805F1ED11A4B62
:101308001A6C42F080521A641B6C03F080530193EC
:10131800019B0125154B1B6813F4807F10D0A3682F
:10132800012B25D0002B3BD10F4B1A6F22F0010265
:101338001A671A6F22F004021A671EE00025E9E70F
:101348000A4A136843F48073136000F0CDFE064622
:10135800064B1B6813F4807FE1D100F0C5FE801BAB
:101368006428F5D90320D9E0003802400070004015
:10137800724A136F43F001031367A36833B300F095
:10138800B3FE06466D4B1B6F13F0020F2FD100F012
:10139800ABFE801B41F288339842F3D90320BDE0AD
:1013A800052B09D0654B1A6F22F001021A671A6FD4
:1013B80022F004021A67E0E7604B1A6F42F0040259
:1013C8001A671A6F42F001021A67D6E700F08CFE1E
:1013D80006465A4B1B6F13F0020F08D000F084FE2C
:1013E800801B41F288339842F3D9032096E0FDB977
:1013F800A369002B00F09180504A926802F00C0219
:10140800082A59D0022B19D04C4A136823F080734C
:10141800136000F069FE0446484B1B6813F0007F18
:1014280048D000F061FE001B0228F5D9032075E0C2
:10143800424A136C23F080531364D9E73F4A136878
:1014480023F08073136000F04FFE05463B4B1B688A
:1014580013F0007F06D000F047FE401B0228F5D9A4
:1014680003205BE0E369226A1343626A43EA82135A
:10147800A26A5208013A43EA0243E26A43EA026373
:10148800226B43EA02732D4A5360136843F080735A
:10149800136000F029FE0446284B1B6813F0007FF8
:1014A80006D100F021FE001B0228F5D9032035E003
:1014B800002033E0002031E0204A5268012B2FD071
:1014C80002F48003E1698B422CD102F03F03216AC8
:1014D8008B4229D1616A47F6C0731340B3EB811F71
:1014E80024D102F44031A36A5B08013BB1EB034FFE
:1014F8001ED102F07063E16AB3EB016F1AD102F0FA
:10150800E042236BB2EB037F16D1002006E00120F6
:101518007047012002E0012000E0002002B070BD09
:101528000120FBE70120F9E70120F7E70120F5E7B3
:101538000120F3E70120F1E70120EFE7003802403E
:1015480008B5314B9B6803F00C03042B57D0082BCC
:1015580057D12D4B5A6802F03F025B6813F4800F95
:101568002AD0294B5968C1F3881C4FEA4C11B1EBBA
:101578000C006EEB0E0E4FEA8E1343EA9063810166
:10158800091A63EB0E03DB0043EA5173C90011EB40
:101598000C0C43F10003590200234FEA4C2041EAA6
:1015A800DC51FEF745FE184B5B68C3F3014301337A
:1015B8005B00B0FBF3F025E0134B5968C1F3881CBE
:1015C8004FEA4C11B1EB0C006EEB0E0E4FEA8E1386
:1015D80043EA90638101091A63EB0E03DB0043EAD7
:1015E8005173C90011EB0C0C43F10003990200235D
:1015F8004FEA8C2041EA9C51FEF71AFED3E70348D4
:1016080000E0034808BD00BF0038024000127A001D
:101618000024F400002800F0A08070B50D460446B0
:10162800524B1B6803F00F038B420BD24F4A1368CF
:1016380023F00F030B431360136803F00F038B426F
:1016480040F08D80236813F0020F17D013F0040FB9
:1016580004D0474A936843F4E0539360236813F037
:10166800080F04D0424A936843F460439360404AA9
:10167800936823F0F003A1680B439360236813F089
:10168800010F31D06368012B20D0022B25D0384AB6
:10169800126812F0020F64D035498A6822F00302FA
:1016A80013438B6000F020FD0646314B9B6803F026
:1016B8000C036268B3EB820F16D000F015FD801B97
:1016C80041F288339842F0D9032045E0284A12684D
:1016D80012F4003FE0D101203EE0254A126812F0E2
:1016E800007FD9D1012037E0204B1B6803F00F039E
:1016F800AB420AD91D4A136823F00F032B4313602A
:10170800136803F00F03AB422DD1236813F0040FC5
:1017180006D0174A936823F4E053E1680B439360BB
:10172800236813F0080F07D0114A936823F4604325
:10173800216943EAC1039360FFF702FF0C4B9B68E2
:10174800C3F303130B4AD35CD8400B4B18600B4B05
:10175800186800F08BFC002070BD01207047012044
:10176800FAE70120F8E70120F6E700BF003C024055
:1017780000380240842600080800002004000020E9
:10178800014B1868704700BF0800002008B5FFF734
:10179800F7FF044B9B68C3F38223034AD35CD8400A
:1017A80008BD00BF003802409426000808B5FFF7BE
:1017B800E7FF044B9B68C3F34233034AD35CD8402A
:1017C80008BD00BF0038024094260008F0B583B079
:1017D8000446066816F001060DD0B54B9A6822F447
:1017E80000029A609A68416B0A439A60436B002B27
:1017F80000F055810026256815F4002511D0AC4A63
:10180800D2F88C3023F44013E16B0B43C2F88C30D0
:10181800E36BB3F5801F00F04481002B00F0438197
:101828000025236813F4801F0FD0A14AD2F88C300A
:1018380023F44003216C0B43C2F88C30236CB3F5BE
:10184800800F00F0328103B90125236813F0807FEF
:1018580000D0012613F0200F40F02C81236813F0EC
:10186800100F0CD0924BD3F88C2022F08072C3F862
:101878008C20D3F88C20A16B0A43C3F88C202368F2
:1018880013F4804F08D08A4AD2F8903023F44033BA
:10189800616E0B43C2F89030236813F4004F08D0F0
:1018A800834AD2F8903023F44023A16E0B43C2F848
:1018B8009030236813F4803F08D07D4AD2F89030E6
:1018C80023F44013E16E0B43C2F89030236813F4FD
:1018D800003F08D0764AD2F8903023F44003216FB5
:1018E8000B43C2F89030236813F0400F08D0704AB9
:1018F800D2F8903023F00303616C0B43C2F89030A8
:10190800236813F0800F08D0694AD2F8903023F08A
:101918000C03A16C0B43C2F89030236813F4807F4A
:1019280008D0634AD2F8903023F03003E16C0B43BF
:10193800C2F89030236813F4007F08D05C4AD2F8CC
:10194800903023F0C003216D0B43C2F89030236818
:1019580013F4806F08D0564AD2F8903023F44073BD
:10196800616D0B43C2F89030236813F4006F08D000
:101978004F4AD2F8903023F44063A16D0B43C2F86C
:101988009030236813F4805F08D0494AD2F8903029
:1019980023F44053E16D0B43C2F89030236813F4ED
:1019A800005F08D0424AD2F8903023F44043216EB9
:1019B8000B43C2F89030236813F4800F08D03C4AD8
:1019C800D2F8903023F08063A16F0B43C2F89030B7
:1019D800236813F4001F0DD0354AD2F8903023F055
:1019E8000063E16F0B43C2F89030E36FB3F1006F0F
:1019F80000F0C680236813F0080F00D0012513F407
:101A0800802F08D02A4AD2F8903023F04073616FB3
:101A18000B43C2F89030236813F4000F09D0244A0E
:101A2800D2F8903023F08053D4F880100B43C2F8DA
:101A38009030236813F0806F09D01D4AD2F8903097
:101A480023F00053D4F884100B43C2F89030236875
:101A580013F0006F09D0164AD2F88C3023F00073C7
:101A6800D4F888100B43C2F88C30236813F0805FD9
:101A780009D00F4AD2F88C3023F08063D4F88C1048
:101A88000B43C2F88C30002E7CD12368B3F1007F61
:101A980078D0012D00F00981002003B0F0BD0126A7
:101AA800A9E60126B9E60125BBE60126CBE600BF7B
:101AB80000380240874B1A6C42F080521A641B6C43
:101AC80003F080530193019B834A136843F48073A6
:101AD800136000F009FB07467F4B1B6813F4807FF7
:101AE80006D100F001FBC01B6428F5D90320D4E718
:101AF800784B1B6F13F4407315D0226B02F44072BD
:101B08009A4210D0734B1A6F22F44072196F41F445
:101B180080311967196F21F4803119671A671B6FB3
:101B280013F0010F12D1236B03F44072B2F5407F1A
:101B38001DD0684A936823F4F813936065490B6FC6
:101B4800226BC2F30B0213430B6787E600F0CCFA53
:101B58000746604B1B6F13F0020FE4D100F0C4FA84
:101B6800C01B41F288339842F3D9032095E75948BE
:101B7800826822F4F812594919400A438260DDE765
:101B8800012537E7534A136823F08063136000F098
:101B9800ABFA06464F4B1B6813F0006F06D000F0F7
:101BA800A3FA801B6428F5D9032076E7236813F08D
:101BB800010F13D0636B8BB9464AD2F88430D2F840
:101BC8008410606803F4403343EA801301F07061C5
:101BD8000B43A16843EA0173C2F88430236813F405
:101BE800002F03D0E26BB2F5801F06D013F4801FDC
:101BF8001ED0236CB3F5800F1AD1364AD2F8843040
:101C0800D2F88410606803F4403343EA8013E06834
:101C180043EA006301F0E0410B43C2F88430D2F894
:101C28008C3023F01F03616A01390B43C2F88C30F2
:101C3800236813F0807F11D0264AD2F88400D2F8A6
:101C48008410666823691B0443EA861300F07060F9
:101C5800034301F0E0410B43C2F88430236813F0DA
:101C6800007F0DD0626823691B0443EA8213E2688F
:101C780043EA0263A26843EA0273164AC2F8843050
:101C8800144A136843F08063136000F02DFA064687
:101C9800104B1B6813F0006F7FF4FBAE00F024FAC2
:101CA800801B6428F4D90320F7E60A4A136823F056
:101CB8008053136000F018FA0546064B1B6813F0B2
:101CC800005F0DD000F010FA401B6428F5D90320FE
:101CD800E3E600BF0038024000700040FFFCFF0F41
:101CE800236813F4002F01D0E26B22B113F4801F94
:101CF8001DD0236CDBB9354AD2F88830D2F8881069
:101D0800606903F4403343EA8013A06943EA00633F
:101D180001F0E0410B43C2F88830D2F88C3023F44C
:101D2800F853A16A013943EA0123C2F88C302368C9
:101D380013F4001F03D0E36FB3F1006F31D02368B1
:101D480013F0080F19D0214AD2F88810D2F8883039
:101D5800606903F4403343EA801301F070610B4378
:101D6800E16943EA0173C2F88830D2F88C3023F471
:101D78004033E16A0B43C2F88C30144A136843F0CD
:101D88008053136000F0B0F90446104B1B6813F041
:101D9800005F19D100F0A8F9001B6428F5D90320C9
:101DA8007BE60A4AD2F88800D2F888106569236A67
:101DB8001B0443EA851300F07060034301F0E0411F
:101DC8000B43C2F88830BAE7002066E600380240C4
:101DD80000230F2B00F2E480F0B583B03AE009222B
:101DE80000E00022AA40324302346E4D45F8242018
:101DF8006D4A14686FEA0C0224EA0C054E6816F462
:101E0800803F01D04CEA0405674C2560646802EA0B
:101E180004054E6816F4003F01D04CEA0405624CF4
:101E28006560A46802EA04054E6816F4801F01D0B4
:101E38004CEA04055C4CA560E46822404D6815F442
:101E4800001F01D04CEA0402574CE26001330F2B0B
:101E580000F2A48001229A400C6804EA020C32EADB
:101E68000404F3D14C68651E112C18BF012D01D94B
:101E7800122C12D185685E000324B44025EA0405BB
:101E8800CC68B4402C438460456825EA02054C6858
:101E9800C4F300129A402A434260C5684FEA430ED1
:101EA800032404FA0EF4E24325EA04058C6804FAD4
:101EB8000EF42C43C4604C68122C18BF022C0FD1AE
:101EC800DD08083550F8257003F00704A6000F2434
:101ED800B44027EA04070C69B4403C4340F8254065
:101EE800046814404A6802F0030202FA0EF2224320
:101EF80002604A6812F0805FA8D02C4A546C44F4FF
:101F080080445464526C02F480420192019A9C0805
:101F1800A51C244A52F8256003F0030295000F22FD
:101F2800AA4026EA0206224A90423FF45AAF02F536
:101F38008062904222D002F58062904220D002F561
:101F4800806290421ED002F5806290421CD002F559
:101F5800806290421AD002F58062904218D002F551
:101F68008062904216D002F58062904214D002F549
:101F7800806290423FF433AF0A2233E7012231E70F
:101F880002222FE703222DE704222BE7052229E767
:101F9800062227E7072225E7082223E703B0F0BD3A
:101FA800704700BF00380140003C01400038024043
:101FB800000002400369194201D001207047002047
:101FC80070470AB1816170470904816170474369AC
:101FD8000B4202D00904816170478161704700009B
:101FE800024A136843F4807313607047007000401E
:101FF80010B582B01B4B1A6C42F080521A641B6CED
:1020080003F080530193019B174A136843F480330C
:10201800136000F069F80446134B5B6813F4803FC3
:1020280008D100F061F8001BB0F57A7FF4D90320DD
:1020380002B010BD0C4A136843F40033136000F07B
:1020480053F80446084B5B6813F4003F07D100F0CF
:102058004BF8001BB0F57A7FF4D90320E8E700209D
:10206800E6E700BF003802400070004010B50446A3
:102078000E4B18784FF47A73B3FBF0F30C4A1068E0
:10208800B0FBF3F0FEF7CEFC68B90F2C01D90120A4
:102098000AE0002221464FF0FF30FEF78DFC054B89
:1020A8001C60002000E0012010BD00BF00000020DF
:1020B800080000200400002008B50320FEF76AFC91
:1020C8000020FFF7D3FFFEF7CFFB002008BD00007C
:1020D800034A1168034B1B780B441360704700BF19
:1020E800AC04002000000020014B1868704700BFB6
:1020F800AC04002038B50446FFF7F6FF0546B4F1F6
:10210800FF3F02D0044B1B781C44FFF7EDFF401B38
:10211800A042FAD338BD00BF0000002070B58AB0D5
:10212800002800F097800546046890F8BD333BB35B
:10213800032385F8BD33E36B13F4807F01D10023BB
:102148002B61286800F0F8F82C4654F8106BEC4620
:102158000FCCACE80F000FCCACE80F0094E80300FC
:102168008CE803002B1D0ECB304600F0A7F8044680
:1021780058B1022385F8BD33012420460AB070BD4A
:1021880080F8BC33FEF7BEFBD2E70021286800F0D8
:10219800D9F8234616E0C3EBC30205EB82020121FE
:1021A80082F83D1082F83C30A2F84230002182F8D3
:1021B8003F1051649164C3EBC30205EB82021165C1
:1021C8000133DBB269688B42E5D316E0C4EBC40384
:1021D80005EB8303002283F8FD2183F8FC4183F893
:1021E800FF21C3F80422C3F80822C4EBC40305EB9B
:1021F8008303C3F810220134E4B2A142E6D82C4686
:1022080054F8106BEC460FCCACE80F000FCCACE8E0
:102218000F0094E803008CE803002B1D0ECB30461A
:1022280000F0D6F8044660B9002385F83830012359
:1022380085F8BD336B6A012B08D0286800F09AF93D
:102248009BE7022385F8BD33012496E7284600F072
:1022580003F8F2E7012490E7034602680121C0F879
:10226800FC13002083F8F403936943F0006393613F
:10227800516D024B0B435365704700BF03000010BC
:10228800002301330C4A934211D80269002AF8DA74
:10229800036943F00103036100230133064A9342B3
:1022A80007D8026912F0010FF7D100207047032008
:1022B80070470320704700BF400D030084B010B57D
:1022C800044603A880E80E00089B012B1DD1A36BD0
:1022D80023F48033A363E268164B1340E360E3689A
:1022E80023F44013E3600F9B012B09D02046FFF72E
:1022F800C7FF069B012B14D0BDE8104004B07047FF
:10230800E36843F48013E360F0E7E36843F04003D5
:10231800E3602046FFF7B4FFA36B43F48033A36365
:10232800E7E7A36843F00603A360A36843F020032C
:10233800A360E1E7BFFFBDFF836823F0010383606B
:102348000020704708B5C36823F0C043C360012963
:1023580009D069B9C36843F08043C3603220FFF7EE
:10236800C9FE002008BDC36843F00053C360F5E709
:102378000120F7E7890141F02001016100230133C1
:10238800054A934205D8026912F0200FF7D10020C0
:1023980070470320704700BF400D030010230361FE
:1023A80000230133054A934205D8026912F0100F41
:1023B800F7D1002070470320704700BF400D03008D
:1023C800D0F800381943C0F8001800207047000002
:1023D80084B02DE9F041044607A880E80E000023E8
:1023E80006E003F1400204EB820200215160013350
:1023F8000E2BF6D9119F37BBD4F8043843F00203EB
:10240800C4F80438A36B23F40013A363236843F0D0
:1024180040032360236843F0800323600023C4F84B
:10242800003E04F50065D4F80038C4F800380C9B69
:10243800012B0DD0032B1CD1099BABB900212046E1
:10244800FFF7BEFF19E0A36B43F40013A363E5E7AE
:10245800099B23B900212046FFF7B2FF0DE00121B7
:102468002046FFF7ADFF08E001212046FFF7A8FF4F
:1024780003E003212046FFF7A3FF10212046FFF7C2
:1024880079FF804608B14FF001082046FFF786FF24
:1024980008B14FF0010800232B616B61EB610AE082
:1024A800C3B94FF00060C2F8000900220A614FF674
:1024B8007F328A6001330799994210D904EB43129D
:1024C80002F51061D2F800090028E9DB0020C2F803
:1024D8000009EAE74FF09040C2F80009E5E7002359
:1024E8000AE0C3B14FF0904CC2F800CB0022026161
:1024F8004FF67F3282600133994211D904EB4312BF
:1025080002F53060D2F8006B002EEADB4FF0000CC9
:10251800C2F800CBEAE74FF0006CC2F800CBE5E761
:102528002B6923F480732B610023A3616FF0804330
:1025380063610A9B1BB9A36943F01003A361A269F5
:102548000A4B1343A3610D9B1BB1A36943F0080316
:10255800A361012F04D04046BDE8F04104B07047A4
:10256800A269034B1343A361F5E700BF00383C8021
:102578000400004008B5D0F8043843F00203C0F85E
:1025880004380320FFF7B6FD002008BD054BD3F83B
:10259800882042F47002C3F888204FF000629A60E5
:1025A800704700BF00ED00E0DFF834D0002103E001
:1025B8000C4B5B58435004310B480C4B42189A4261
:1025C800F6D30B4A02E0002342F8043B094B9A4237
:1025D800F9D3FFF7DBFF00F011F8FEF707F97047B2
:1025E80000000820AC260008000000200C00002095
:1025F8000C000020B0040020FEE7000070B50D4D6F
:102608000D4C641BA4100026A64209D10B4D0C4C9E
:1026180000F020F8641BA4100026A64205D170BD66
:1026280055F8043B98470136EEE755F8043B9847C0
:102638000136F2E7A4260008A4260008A42600080C
:10264800A826000802440346934200D1704703F8C5
:10265800011BF9E7F8B500BFF8BC08BC9E467047F7
:0C266800F8B500BFF8BC08BC9E467047E7
:1026740048656C6C6F20776F726C64210D0A0000E2
:10268400000000000000000001020304060708091E
:08269400000000000102030434
:08269C00CCDBFF7F0100000010
:0426A4001D0200080B
:0426A800F90100082C
:0C26AC0001000000100000000024F400F9
:04000005080025B119
:00000001FF
